{
  "contractName": "MoldCoin",
  "abi": [
    {
      "constant": true,
      "inputs": [],
      "name": "name",
      "outputs": [
        {
          "name": "",
          "type": "string"
        }
      ],
      "payable": false,
      "type": "function",
      "stateMutability": "view"
    },
    {
      "constant": false,
      "inputs": [
        {
          "name": "_spender",
          "type": "address"
        },
        {
          "name": "_value",
          "type": "uint256"
        }
      ],
      "name": "approve",
      "outputs": [
        {
          "name": "success",
          "type": "bool"
        }
      ],
      "payable": false,
      "type": "function",
      "stateMutability": "nonpayable"
    },
    {
      "constant": true,
      "inputs": [],
      "name": "salesVolume",
      "outputs": [
        {
          "name": "",
          "type": "uint256"
        }
      ],
      "payable": false,
      "type": "function",
      "stateMutability": "view"
    },
    {
      "constant": false,
      "inputs": [
        {
          "name": "recipient",
          "type": "address"
        }
      ],
      "name": "buyRecipient",
      "outputs": [],
      "payable": true,
      "type": "function",
      "stateMutability": "payable"
    },
    {
      "constant": true,
      "inputs": [],
      "name": "secondStageDatetime",
      "outputs": [
        {
          "name": "",
          "type": "uint256"
        }
      ],
      "payable": false,
      "type": "function",
      "stateMutability": "view"
    },
    {
      "constant": true,
      "inputs": [],
      "name": "totalSupply",
      "outputs": [
        {
          "name": "",
          "type": "uint256"
        }
      ],
      "payable": false,
      "type": "function",
      "stateMutability": "view"
    },
    {
      "constant": false,
      "inputs": [
        {
          "name": "_from",
          "type": "address"
        },
        {
          "name": "_to",
          "type": "address"
        },
        {
          "name": "_value",
          "type": "uint256"
        }
      ],
      "name": "transferFrom",
      "outputs": [
        {
          "name": "success",
          "type": "bool"
        }
      ],
      "payable": false,
      "type": "function",
      "stateMutability": "nonpayable"
    },
    {
      "constant": true,
      "inputs": [
        {
          "name": "timeInSeconds",
          "type": "uint256"
        }
      ],
      "name": "price",
      "outputs": [
        {
          "name": "",
          "type": "uint256"
        }
      ],
      "payable": false,
      "type": "function",
      "stateMutability": "view"
    },
    {
      "constant": true,
      "inputs": [],
      "name": "decimals",
      "outputs": [
        {
          "name": "",
          "type": "uint256"
        }
      ],
      "payable": false,
      "type": "function",
      "stateMutability": "view"
    },
    {
      "constant": true,
      "inputs": [],
      "name": "founder",
      "outputs": [
        {
          "name": "",
          "type": "address"
        }
      ],
      "payable": false,
      "type": "function",
      "stateMutability": "view"
    },
    {
      "constant": false,
      "inputs": [],
      "name": "halt",
      "outputs": [],
      "payable": false,
      "type": "function",
      "stateMutability": "nonpayable"
    },
    {
      "constant": true,
      "inputs": [
        {
          "name": "_owner",
          "type": "address"
        }
      ],
      "name": "balanceOf",
      "outputs": [
        {
          "name": "balance",
          "type": "uint256"
        }
      ],
      "payable": false,
      "type": "function",
      "stateMutability": "view"
    },
    {
      "constant": true,
      "inputs": [],
      "name": "angelAllocation",
      "outputs": [
        {
          "name": "",
          "type": "uint256"
        }
      ],
      "payable": false,
      "type": "function",
      "stateMutability": "view"
    },
    {
      "constant": true,
      "inputs": [],
      "name": "founderAllocation",
      "outputs": [
        {
          "name": "",
          "type": "uint256"
        }
      ],
      "payable": false,
      "type": "function",
      "stateMutability": "view"
    },
    {
      "constant": false,
      "inputs": [
        {
          "name": "holder",
          "type": "address"
        },
        {
          "name": "tokens",
          "type": "uint256"
        }
      ],
      "name": "arrangeUnsoldTokens",
      "outputs": [],
      "payable": false,
      "type": "function",
      "stateMutability": "nonpayable"
    },
    {
      "constant": false,
      "inputs": [
        {
          "name": "newAdmin",
          "type": "address"
        }
      ],
      "name": "changeAdmin",
      "outputs": [],
      "payable": false,
      "type": "function",
      "stateMutability": "nonpayable"
    },
    {
      "constant": true,
      "inputs": [],
      "name": "symbol",
      "outputs": [
        {
          "name": "",
          "type": "string"
        }
      ],
      "payable": false,
      "type": "function",
      "stateMutability": "view"
    },
    {
      "constant": true,
      "inputs": [],
      "name": "startDatetime",
      "outputs": [
        {
          "name": "",
          "type": "uint256"
        }
      ],
      "payable": false,
      "type": "function",
      "stateMutability": "view"
    },
    {
      "constant": true,
      "inputs": [],
      "name": "founderAllocated",
      "outputs": [
        {
          "name": "",
          "type": "bool"
        }
      ],
      "payable": false,
      "type": "function",
      "stateMutability": "view"
    },
    {
      "constant": false,
      "inputs": [],
      "name": "buy",
      "outputs": [],
      "payable": true,
      "type": "function",
      "stateMutability": "payable"
    },
    {
      "constant": false,
      "inputs": [
        {
          "name": "_to",
          "type": "address"
        },
        {
          "name": "_value",
          "type": "uint256"
        }
      ],
      "name": "transfer",
      "outputs": [
        {
          "name": "success",
          "type": "bool"
        }
      ],
      "payable": false,
      "type": "function",
      "stateMutability": "nonpayable"
    },
    {
      "constant": true,
      "inputs": [],
      "name": "halted",
      "outputs": [
        {
          "name": "",
          "type": "bool"
        }
      ],
      "payable": false,
      "type": "function",
      "stateMutability": "view"
    },
    {
      "constant": false,
      "inputs": [],
      "name": "allocateFounderTokens",
      "outputs": [],
      "payable": false,
      "type": "function",
      "stateMutability": "nonpayable"
    },
    {
      "constant": false,
      "inputs": [
        {
          "name": "angel",
          "type": "address"
        },
        {
          "name": "tokens",
          "type": "uint256"
        }
      ],
      "name": "allocateAngelTokens",
      "outputs": [],
      "payable": false,
      "type": "function",
      "stateMutability": "nonpayable"
    },
    {
      "constant": true,
      "inputs": [],
      "name": "saleTokenSupply",
      "outputs": [
        {
          "name": "",
          "type": "uint256"
        }
      ],
      "payable": false,
      "type": "function",
      "stateMutability": "view"
    },
    {
      "constant": false,
      "inputs": [],
      "name": "unhalt",
      "outputs": [],
      "payable": false,
      "type": "function",
      "stateMutability": "nonpayable"
    },
    {
      "constant": true,
      "inputs": [],
      "name": "firstStageDatetime",
      "outputs": [
        {
          "name": "",
          "type": "uint256"
        }
      ],
      "payable": false,
      "type": "function",
      "stateMutability": "view"
    },
    {
      "constant": true,
      "inputs": [],
      "name": "endDatetime",
      "outputs": [
        {
          "name": "",
          "type": "uint256"
        }
      ],
      "payable": false,
      "type": "function",
      "stateMutability": "view"
    },
    {
      "constant": true,
      "inputs": [
        {
          "name": "_owner",
          "type": "address"
        },
        {
          "name": "_spender",
          "type": "address"
        }
      ],
      "name": "allowance",
      "outputs": [
        {
          "name": "remaining",
          "type": "uint256"
        }
      ],
      "payable": false,
      "type": "function",
      "stateMutability": "view"
    },
    {
      "constant": true,
      "inputs": [],
      "name": "coinAllocation",
      "outputs": [
        {
          "name": "",
          "type": "uint256"
        }
      ],
      "payable": false,
      "type": "function",
      "stateMutability": "view"
    },
    {
      "constant": true,
      "inputs": [],
      "name": "angelTokenSupply",
      "outputs": [
        {
          "name": "",
          "type": "uint256"
        }
      ],
      "payable": false,
      "type": "function",
      "stateMutability": "view"
    },
    {
      "constant": true,
      "inputs": [],
      "name": "admin",
      "outputs": [
        {
          "name": "",
          "type": "address"
        }
      ],
      "payable": false,
      "type": "function",
      "stateMutability": "view"
    },
    {
      "inputs": [
        {
          "name": "startDatetimeInSeconds",
          "type": "uint256"
        },
        {
          "name": "founderWallet",
          "type": "address"
        }
      ],
      "payable": false,
      "type": "constructor",
      "stateMutability": "nonpayable"
    },
    {
      "payable": true,
      "type": "fallback",
      "stateMutability": "payable"
    },
    {
      "anonymous": false,
      "inputs": [
        {
          "indexed": true,
          "name": "sender",
          "type": "address"
        },
        {
          "indexed": false,
          "name": "eth",
          "type": "uint256"
        },
        {
          "indexed": false,
          "name": "tokens",
          "type": "uint256"
        }
      ],
      "name": "Buy",
      "type": "event"
    },
    {
      "anonymous": false,
      "inputs": [
        {
          "indexed": true,
          "name": "sender",
          "type": "address"
        },
        {
          "indexed": false,
          "name": "tokens",
          "type": "uint256"
        }
      ],
      "name": "AllocateFounderTokens",
      "type": "event"
    },
    {
      "anonymous": false,
      "inputs": [
        {
          "indexed": true,
          "name": "sender",
          "type": "address"
        },
        {
          "indexed": false,
          "name": "to",
          "type": "address"
        },
        {
          "indexed": false,
          "name": "tokens",
          "type": "uint256"
        }
      ],
      "name": "AllocateAngelTokens",
      "type": "event"
    },
    {
      "anonymous": false,
      "inputs": [
        {
          "indexed": true,
          "name": "sender",
          "type": "address"
        },
        {
          "indexed": false,
          "name": "holder",
          "type": "address"
        },
        {
          "indexed": false,
          "name": "tokens",
          "type": "uint256"
        }
      ],
      "name": "AllocateUnsoldTokens",
      "type": "event"
    },
    {
      "anonymous": false,
      "inputs": [
        {
          "indexed": true,
          "name": "_from",
          "type": "address"
        },
        {
          "indexed": true,
          "name": "_to",
          "type": "address"
        },
        {
          "indexed": false,
          "name": "_value",
          "type": "uint256"
        }
      ],
      "name": "Transfer",
      "type": "event"
    },
    {
      "anonymous": false,
      "inputs": [
        {
          "indexed": true,
          "name": "_owner",
          "type": "address"
        },
        {
          "indexed": true,
          "name": "_spender",
          "type": "address"
        },
        {
          "indexed": false,
          "name": "_value",
          "type": "uint256"
        }
      ],
      "name": "Approval",
      "type": "event"
    }
  ],
  "bytecode": "0x60606040526040805190810160405280600481526020017f4d4f4c4400000000000000000000000000000000000000000000000000000000815250600390805190602001906200005192919062000204565b506040805190810160405280600381526020017f4d4c440000000000000000000000000000000000000000000000000000000000815250600490805190602001906200009f92919062000204565b506012600555600554600a0a637735940002600c55600554600a0a630bebc20002600d55600554600a0a6311e1a30002600e556000600f60006101000a81548160ff0219169083151502179055506000601055600060115560006012556000601360006101000a81548160ff02191690831515021790555034156200012357600080fd5b60405160408062001d5d8339810160405280805190602001909190805190602001909190505033600b60006101000a81548173ffffffffffffffffffffffffffffffffffffffff021916908373ffffffffffffffffffffffffffffffffffffffff16021790555080600a60006101000a81548173ffffffffffffffffffffffffffffffffffffffff021916908373ffffffffffffffffffffffffffffffffffffffff160217905550816006819055506206978060065401600781905550620d2f006007540160088190555062700f80600854016009819055505050620002b3565b828054600181600116156101000203166002900490600052602060002090601f016020900481019282601f106200024757805160ff191683800117855562000278565b8280016001018555821562000278579182015b82811115620002775782518255916020019190600101906200025a565b5b5090506200028791906200028b565b5090565b620002b091905b80821115620002ac57600081600090555060010162000292565b5090565b90565b611a9a80620002c36000396000f300606060405260043610610196576000357c0100000000000000000000000000000000000000000000000000000000900463ffffffff16806306fdde03146101a1578063095ea7b31461022f5780630aaba4321461028957806311a4c710146102b257806316b8aa6b146102e057806318160ddd1461030957806323b872dd1461033257806326a49e37146103ab578063313ce567146103e25780634d853ee51461040b5780635ed7ca5b1461046057806370a08231146104755780637a5a59ec146104c2578063824338bd146104eb57806383c6aa47146105145780638f2839701461055657806395d89b411461058f578063977615a31461061d57806399d22e4814610646578063a6f2ae3a14610673578063a9059cbb1461067d578063b9b8af0b146106d7578063bcfcb03e14610704578063bd58118f14610719578063c0ad74271461075b578063cb3e64fd14610784578063cd91672d14610799578063d781be46146107c2578063dd62ed3e146107eb578063e399331b14610857578063f44349dd14610880578063f851a440146108a9575b61019f336108fe565b005b34156101ac57600080fd5b6101b4610ae4565b6040518080602001828103825283818151815260200191508051906020019080838360005b838110156101f45780820151818401526020810190506101d9565b50505050905090810190601f1680156102215780820380516001836020036101000a031916815260200191505b509250505060405180910390f35b341561023a57600080fd5b61026f600480803573ffffffffffffffffffffffffffffffffffffffff16906020019091908035906020019091905050610b82565b604051808215151515815260200191505060405180910390f35b341561029457600080fd5b61029c610c74565b6040518082815260200191505060405180910390f35b6102de600480803573ffffffffffffffffffffffffffffffffffffffff169060200190919050506108fe565b005b34156102eb57600080fd5b6102f3610c7a565b6040518082815260200191505060405180910390f35b341561031457600080fd5b61031c610c80565b6040518082815260200191505060405180910390f35b341561033d57600080fd5b610391600480803573ffffffffffffffffffffffffffffffffffffffff1690602001909190803573ffffffffffffffffffffffffffffffffffffffff16906020019091908035906020019091905050610c86565b604051808215151515815260200191505060405180910390f35b34156103b657600080fd5b6103cc6004808035906020019091905050610f02565b6040518082815260200191505060405180910390f35b34156103ed57600080fd5b6103f5610f60565b6040518082815260200191505060405180910390f35b341561041657600080fd5b61041e610f66565b604051808273ffffffffffffffffffffffffffffffffffffffff1673ffffffffffffffffffffffffffffffffffffffff16815260200191505060405180910390f35b341561046b57600080fd5b610473610f8c565b005b341561048057600080fd5b6104ac600480803573ffffffffffffffffffffffffffffffffffffffff16906020019091905050611005565b6040518082815260200191505060405180910390f35b34156104cd57600080fd5b6104d561104e565b6040518082815260200191505060405180910390f35b34156104f657600080fd5b6104fe611054565b6040518082815260200191505060405180910390f35b341561051f57600080fd5b610554600480803573ffffffffffffffffffffffffffffffffffffffff1690602001909190803590602001909190505061105a565b005b341561056157600080fd5b61058d600480803573ffffffffffffffffffffffffffffffffffffffff16906020019091905050611266565b005b341561059a57600080fd5b6105a2611306565b6040518080602001828103825283818151815260200191508051906020019080838360005b838110156105e25780820151818401526020810190506105c7565b50505050905090810190601f16801561060f5780820380516001836020036101000a031916815260200191505b509250505060405180910390f35b341561062857600080fd5b6106306113a4565b6040518082815260200191505060405180910390f35b341561065157600080fd5b6106596113aa565b604051808215151515815260200191505060405180910390f35b61067b6113bd565b005b341561068857600080fd5b6106bd600480803573ffffffffffffffffffffffffffffffffffffffff169060200190919080359060200190919050506113c8565b604051808215151515815260200191505060405180910390f35b34156106e257600080fd5b6106ea611531565b604051808215151515815260200191505060405180910390f35b341561070f57600080fd5b610717611544565b005b341561072457600080fd5b610759600480803573ffffffffffffffffffffffffffffffffffffffff1690602001909190803590602001909190505061171f565b005b341561076657600080fd5b61076e6118cd565b6040518082815260200191505060405180910390f35b341561078f57600080fd5b6107976118d3565b005b34156107a457600080fd5b6107ac61194c565b6040518082815260200191505060405180910390f35b34156107cd57600080fd5b6107d5611952565b6040518082815260200191505060405180910390f35b34156107f657600080fd5b610841600480803573ffffffffffffffffffffffffffffffffffffffff1690602001909190803573ffffffffffffffffffffffffffffffffffffffff16906020019091905050611958565b6040518082815260200191505060405180910390f35b341561086257600080fd5b61086a6119df565b6040518082815260200191505060405180910390f35b341561088b57600080fd5b6108936119e5565b6040518082815260200191505060405180910390f35b34156108b457600080fd5b6108bc6119eb565b604051808273ffffffffffffffffffffffffffffffffffffffff1673ffffffffffffffffffffffffffffffffffffffff16815260200191505060405180910390f35b6000600654421015801561091457506009544211155b151561091f57600080fd5b601360009054906101000a900460ff1615151561093b57600080fd5b61094d3461094842610f02565b611a11565b9050600c5461095e60105483611a44565b1115151561096b57600080fd5b6109b4600160008473ffffffffffffffffffffffffffffffffffffffff1673ffffffffffffffffffffffffffffffffffffffff1681526020019081526020016000205482611a44565b600160008473ffffffffffffffffffffffffffffffffffffffff1673ffffffffffffffffffffffffffffffffffffffff16815260200190815260200160002081905550610a0360005482611a44565b600081905550610a1560105482611a44565b601081905550610a2760115434611a44565b601181905550600a60009054906101000a900473ffffffffffffffffffffffffffffffffffffffff1673ffffffffffffffffffffffffffffffffffffffff163460405160006040518083038185876187965a03f1925050501515610a8a57600080fd5b8173ffffffffffffffffffffffffffffffffffffffff167f1cbc5ab135991bd2b6a4b034a04aa2aa086dac1371cb9b16b8b5e2ed6b036bed3483604051808381526020018281526020019250505060405180910390a25050565b60038054600181600116156101000203166002900480601f016020809104026020016040519081016040528092919081815260200182805460018160011615610100020316600290048015610b7a5780601f10610b4f57610100808354040283529160200191610b7a565b820191906000526020600020905b815481529060010190602001808311610b5d57829003601f168201915b505050505081565b600081600260003373ffffffffffffffffffffffffffffffffffffffff1673ffffffffffffffffffffffffffffffffffffffff16815260200190815260200160002060008573ffffffffffffffffffffffffffffffffffffffff1673ffffffffffffffffffffffffffffffffffffffff168152602001908152602001600020819055508273ffffffffffffffffffffffffffffffffffffffff163373ffffffffffffffffffffffffffffffffffffffff167f8c5be1e5ebec7d5bd14f71427d1e84f3dd0314c0f7b2291e5b200ac8c7c3b925846040518082815260200191505060405180910390a36001905092915050565b60115481565b60085481565b60005481565b600081600160008673ffffffffffffffffffffffffffffffffffffffff1673ffffffffffffffffffffffffffffffffffffffff1681526020019081526020016000205410158015610d53575081600260008673ffffffffffffffffffffffffffffffffffffffff1673ffffffffffffffffffffffffffffffffffffffff16815260200190815260200160002060003373ffffffffffffffffffffffffffffffffffffffff1673ffffffffffffffffffffffffffffffffffffffff1681526020019081526020016000205410155b8015610d5f5750600082115b15610ef65781600160008573ffffffffffffffffffffffffffffffffffffffff1673ffffffffffffffffffffffffffffffffffffffff1681526020019081526020016000206000828254019250508190555081600160008673ffffffffffffffffffffffffffffffffffffffff1673ffffffffffffffffffffffffffffffffffffffff1681526020019081526020016000206000828254039250508190555081600260008673ffffffffffffffffffffffffffffffffffffffff1673ffffffffffffffffffffffffffffffffffffffff16815260200190815260200160002060003373ffffffffffffffffffffffffffffffffffffffff1673ffffffffffffffffffffffffffffffffffffffff168152602001908152602001600020600082825403925050819055508273ffffffffffffffffffffffffffffffffffffffff168473ffffffffffffffffffffffffffffffffffffffff167fddf252ad1be2c89b69c2b068fc378daa952ba7f163c4a11628f55a4df523b3ef846040518082815260200191505060405180910390a360019050610efb565b600090505b9392505050565b6000600654821015610f175760009050610f5b565b60075482111515610f2c57613a989050610f5b565b60085482111515610f4157612ee09050610f5b565b60095482111515610f56576127109050610f5b565b600090505b919050565b60055481565b600a60009054906101000a900473ffffffffffffffffffffffffffffffffffffffff1681565b600b60009054906101000a900473ffffffffffffffffffffffffffffffffffffffff1673ffffffffffffffffffffffffffffffffffffffff163373ffffffffffffffffffffffffffffffffffffffff16141515610fe857600080fd5b6001601360006101000a81548160ff021916908315150217905550565b6000600160008373ffffffffffffffffffffffffffffffffffffffff1673ffffffffffffffffffffffffffffffffffffffff168152602001908152602001600020549050919050565b600d5481565b600e5481565b600b60009054906101000a900473ffffffffffffffffffffffffffffffffffffffff1673ffffffffffffffffffffffffffffffffffffffff163373ffffffffffffffffffffffffffffffffffffffff161415156110b657600080fd5b600954421115156110c657600080fd5b600c546110d560105483611a44565b111515156110e257600080fd5b6000600160008473ffffffffffffffffffffffffffffffffffffffff1673ffffffffffffffffffffffffffffffffffffffff1681526020019081526020016000205411151561113057600080fd5b611179600160008473ffffffffffffffffffffffffffffffffffffffff1673ffffffffffffffffffffffffffffffffffffffff1681526020019081526020016000205482611a44565b600160008473ffffffffffffffffffffffffffffffffffffffff1673ffffffffffffffffffffffffffffffffffffffff168152602001908152602001600020819055506111c860105482611a44565b6010819055506111da60005482611a44565b6000819055503373ffffffffffffffffffffffffffffffffffffffff167fa09a05e020675fa97490cab9b44016fe91531917414bc0c8d7923a72d60b348e8383604051808373ffffffffffffffffffffffffffffffffffffffff1673ffffffffffffffffffffffffffffffffffffffff1681526020018281526020019250505060405180910390a25050565b600b60009054906101000a900473ffffffffffffffffffffffffffffffffffffffff1673ffffffffffffffffffffffffffffffffffffffff163373ffffffffffffffffffffffffffffffffffffffff161415156112c257600080fd5b80600b60006101000a81548173ffffffffffffffffffffffffffffffffffffffff021916908373ffffffffffffffffffffffffffffffffffffffff16021790555050565b60048054600181600116156101000203166002900480601f01602080910402602001604051908101604052809291908181526020018280546001816001161561010002031660029004801561139c5780601f106113715761010080835404028352916020019161139c565b820191906000526020600020905b81548152906001019060200180831161137f57829003601f168201915b505050505081565b60065481565b600f60009054906101000a900460ff1681565b6113c6336108fe565b565b600081600160003373ffffffffffffffffffffffffffffffffffffffff1673ffffffffffffffffffffffffffffffffffffffff16815260200190815260200160002054101580156114195750600082115b156115265781600160003373ffffffffffffffffffffffffffffffffffffffff1673ffffffffffffffffffffffffffffffffffffffff1681526020019081526020016000206000828254039250508190555081600160008573ffffffffffffffffffffffffffffffffffffffff1673ffffffffffffffffffffffffffffffffffffffff168152602001908152602001600020600082825401925050819055508273ffffffffffffffffffffffffffffffffffffffff163373ffffffffffffffffffffffffffffffffffffffff167fddf252ad1be2c89b69c2b068fc378daa952ba7f163c4a11628f55a4df523b3ef846040518082815260200191505060405180910390a36001905061152b565b600090505b92915050565b601360009054906101000a900460ff1681565b600b60009054906101000a900473ffffffffffffffffffffffffffffffffffffffff1673ffffffffffffffffffffffffffffffffffffffff163373ffffffffffffffffffffffffffffffffffffffff161415156115a057600080fd5b600954421115156115b057600080fd5b600f60009054906101000a900460ff161515156115cc57600080fd5b61163960016000600a60009054906101000a900473ffffffffffffffffffffffffffffffffffffffff1673ffffffffffffffffffffffffffffffffffffffff1673ffffffffffffffffffffffffffffffffffffffff16815260200190815260200160002054600e54611a44565b60016000600a60009054906101000a900473ffffffffffffffffffffffffffffffffffffffff1673ffffffffffffffffffffffffffffffffffffffff1673ffffffffffffffffffffffffffffffffffffffff168152602001908152602001600020819055506116ac600054600e54611a44565b6000819055506001600f60006101000a81548160ff0219169083151502179055503373ffffffffffffffffffffffffffffffffffffffff167f6beace8fab9ac83e5d9e4f62dbef9f573d3f56ab82cee743f42d3012f0e71e3f600e546040518082815260200191505060405180910390a2565b600b60009054906101000a900473ffffffffffffffffffffffffffffffffffffffff1673ffffffffffffffffffffffffffffffffffffffff163373ffffffffffffffffffffffffffffffffffffffff1614151561177b57600080fd5b600d5461178a60125483611a44565b1115151561179757600080fd5b6117e0600160008473ffffffffffffffffffffffffffffffffffffffff1673ffffffffffffffffffffffffffffffffffffffff1681526020019081526020016000205482611a44565b600160008473ffffffffffffffffffffffffffffffffffffffff1673ffffffffffffffffffffffffffffffffffffffff1681526020019081526020016000208190555061182f60125482611a44565b60128190555061184160005482611a44565b6000819055503373ffffffffffffffffffffffffffffffffffffffff167ffe3d002b0f7cf9e18f958ffdd3f95068295dffa83ce2e1026871b1f8aadc39218383604051808373ffffffffffffffffffffffffffffffffffffffff1673ffffffffffffffffffffffffffffffffffffffff1681526020018281526020019250505060405180910390a25050565b60105481565b600b60009054906101000a900473ffffffffffffffffffffffffffffffffffffffff1673ffffffffffffffffffffffffffffffffffffffff163373ffffffffffffffffffffffffffffffffffffffff1614151561192f57600080fd5b6000601360006101000a81548160ff021916908315150217905550565b60075481565b60095481565b6000600260008473ffffffffffffffffffffffffffffffffffffffff1673ffffffffffffffffffffffffffffffffffffffff16815260200190815260200160002060008373ffffffffffffffffffffffffffffffffffffffff1673ffffffffffffffffffffffffffffffffffffffff16815260200190815260200160002054905092915050565b600c5481565b60125481565b600b60009054906101000a900473ffffffffffffffffffffffffffffffffffffffff1681565b60008082840290506000841480611a325750828482811515611a2f57fe5b04145b1515611a3a57fe5b8091505092915050565b6000808284019050838110158015611a5c5750828110155b1515611a6457fe5b80915050929150505600a165627a7a72305820b4cf2d422cf79224b4206e576c5657650543136e97bb203637461bf2f7f6b7530029",
  "source": "pragma solidity ^0.4.11;\n\ncontract SafeMath {\n  //internals\n\n  function safeMul(uint a, uint b) internal returns (uint) {\n    uint c = a * b;\n    assert(a == 0 || c / a == b);\n    return c;\n  }\n\n  function safeSub(uint a, uint b) internal returns (uint) {\n    assert(b <= a);\n    return a - b;\n  }\n\n  function safeAdd(uint a, uint b) internal returns (uint) {\n    uint c = a + b;\n    assert(c>=a && c>=b);\n    return c;\n  }\n\n  function safeDiv(uint a, uint b) internal returns (uint) {\n      assert(b > 0);\n      uint c = a / b;\n      assert(a == b * c + a % b);\n      return c;\n  }\n}\n\n// ERC 20 Token\n// https://github.com/ethereum/EIPs/issues/20\n\ncontract Token {\n    /* This is a slight change to the ERC20 base standard.\n    function totalSupply() constant returns (uint256 supply);\n    is replaced with:\n    uint256 public totalSupply;\n    This automatically creates a getter function for the totalSupply.\n    This is moved to the base contract since public getter functions are not\n    currently recognised as an implementation of the matching abstract\n    function by the compiler.\n    */\n    /// total amount of tokens\n    uint256 public totalSupply;\n\n    /// @param _owner The address from which the balance will be retrieved\n    /// @return The balance\n    function balanceOf(address _owner) constant returns (uint256 balance);\n\n    /// @notice send `_value` token to `_to` from `msg.sender`\n    /// @param _to The address of the recipient\n    /// @param _value The amount of token to be transferred\n    /// @return Whether the transfer was successful or not\n    function transfer(address _to, uint256 _value) returns (bool success);\n\n    /// @notice send `_value` token to `_to` from `_from` on the condition it is approved by `_from`\n    /// @param _from The address of the sender\n    /// @param _to The address of the recipient\n    /// @param _value The amount of token to be transferred\n    /// @return Whether the transfer was successful or not\n    function transferFrom(address _from, address _to, uint256 _value) returns (bool success);\n\n    /// @notice `msg.sender` approves `_spender` to spend `_value` tokens\n    /// @param _spender The address of the account able to transfer the tokens\n    /// @param _value The amount of tokens to be approved for transfer\n    /// @return Whether the approval was successful or not\n    function approve(address _spender, uint256 _value) returns (bool success);\n\n    /// @param _owner The address of the account owning tokens\n    /// @param _spender The address of the account able to transfer the tokens\n    /// @return Amount of remaining tokens allowed to spent\n    function allowance(address _owner, address _spender) constant returns (uint256 remaining);\n\n    event Transfer(address indexed _from, address indexed _to, uint256 _value);\n    event Approval(address indexed _owner, address indexed _spender, uint256 _value);\n}\n\ncontract StandardToken is Token {\n\n    function transfer(address _to, uint256 _value) returns (bool success) {\n        //Default assumes totalSupply can't be over max (2^256 - 1).\n        //If your token leaves out totalSupply and can issue more tokens as time goes on, you need to check if it doesn't wrap.\n        //Replace the if with this one instead.\n        //if (balances[msg.sender] >= _value && balances[_to] + _value > balances[_to]) {\n        if (balances[msg.sender] >= _value && _value > 0) {\n            balances[msg.sender] -= _value;\n            balances[_to] += _value;\n            Transfer(msg.sender, _to, _value);\n            return true;\n        } else { return false; }\n    }\n\n    function transferFrom(address _from, address _to, uint256 _value) returns (bool success) {\n        //same as above. Replace this line with the following if you want to protect against wrapping uints.\n        //if (balances[_from] >= _value && allowed[_from][msg.sender] >= _value && balances[_to] + _value > balances[_to]) {\n        if (balances[_from] >= _value && allowed[_from][msg.sender] >= _value && _value > 0) {\n            balances[_to] += _value;\n            balances[_from] -= _value;\n            allowed[_from][msg.sender] -= _value;\n            Transfer(_from, _to, _value);\n            return true;\n        } else { return false; }\n    }\n\n    function balanceOf(address _owner) constant returns (uint256 balance) {\n        return balances[_owner];\n    }\n\n    function approve(address _spender, uint256 _value) returns (bool success) {\n        allowed[msg.sender][_spender] = _value;\n        Approval(msg.sender, _spender, _value);\n        return true;\n    }\n\n    function allowance(address _owner, address _spender) constant returns (uint256 remaining) {\n      return allowed[_owner][_spender];\n    }\n\n    mapping (address => uint256) balances;\n    mapping (address => mapping (address => uint256)) allowed;\n}\n\n\n/**\n * MoldCoin pre-sell contract.\n *\n */\ncontract MoldCoin is StandardToken, SafeMath {\n\n    string public name = \"MOLD\";\n    string public symbol = \"MLD\";\n    uint public decimals = 18;\n\n    uint public startDatetime; //pre-sell start datetime seconds\n    uint public firstStageDatetime; //first 120 hours pre-sell in seconds\n    uint public secondStageDatetime; //second stage, 240 hours of pre-sell in seconds.\n    uint public endDatetime; //pre-sell end datetime seconds (set in constructor)\n\n    // Initial founder address (set in constructor)\n    // All deposited ETH will be instantly forwarded to this address.\n    address public founder;\n\n    // administrator address\n    address public admin;\n\n    uint public coinAllocation = 20 * 10**8 * 10**decimals; //2000M tokens supply for pre-sell\n    uint public angelAllocation = 2 * 10**8 * 10**decimals; // 200M of token supply allocated angel investor\n    uint public founderAllocation = 3 * 10**8 * 10**decimals; //300M of token supply allocated for the founder allocation\n\n    bool public founderAllocated = false; //this will change to true when the founder fund is allocated\n\n    uint public saleTokenSupply = 0; //this will keep track of the token supply created during the pre-sell\n    uint public salesVolume = 0; //this will keep track of the Ether raised during the pre-sell\n\n    uint public angelTokenSupply = 0; //this will keep track of the token angel supply\n\n    bool public halted = false; //the admin address can set this to true to halt the pre-sell due to emergency\n\n    event Buy(address indexed sender, uint eth, uint tokens);\n    event AllocateFounderTokens(address indexed sender, uint tokens);\n    event AllocateAngelTokens(address indexed sender, address to, uint tokens);\n    event AllocateUnsoldTokens(address indexed sender, address holder, uint tokens);\n\n    modifier onlyAdmin {\n        require(msg.sender == admin);\n        _;\n    }\n\n    modifier duringCrowdSale {\n        require(block.timestamp >= startDatetime && block.timestamp <= endDatetime);\n        _;\n    }\n\n    /**\n     *\n     * Integer value representing the number of seconds since 1 January 1970 00:00:00 UTC\n     */\n    function MoldCoin(uint startDatetimeInSeconds, address founderWallet) {\n\n        admin = msg.sender;\n        founder = founderWallet;\n        startDatetime = startDatetimeInSeconds;\n        firstStageDatetime = startDatetime + 120 * 1 hours;\n        secondStageDatetime = firstStageDatetime + 240 * 1 hours;\n        endDatetime = secondStageDatetime + 2040 * 1 hours;\n\n    }\n\n    /**\n     * Price for crowdsale by time\n     */\n    function price(uint timeInSeconds) constant returns(uint) {\n        if (timeInSeconds < startDatetime) return 0;\n        if (timeInSeconds <= firstStageDatetime) return 15000; //120 hours\n        if (timeInSeconds <= secondStageDatetime) return 12000; //240 hours\n        if (timeInSeconds <= endDatetime) return 10000; //2040 hours\n        return 0;\n    }\n\n    /**\n     * allow anyone sends funds to the contract\n     */\n    function buy() payable {\n        buyRecipient(msg.sender);\n    }\n\n    function() payable {\n        buyRecipient(msg.sender);\n    }\n\n    /**\n     * Main token buy function.\n     * Buy for the sender itself or buy on the behalf of somebody else (third party address).\n     */\n    function buyRecipient(address recipient) duringCrowdSale payable {\n        require(!halted);\n\n        uint tokens = safeMul(msg.value, price(block.timestamp));\n        require(safeAdd(saleTokenSupply,tokens)<=coinAllocation );\n\n        balances[recipient] = safeAdd(balances[recipient], tokens);\n\n        totalSupply = safeAdd(totalSupply, tokens);\n        saleTokenSupply = safeAdd(saleTokenSupply, tokens);\n        salesVolume = safeAdd(salesVolume, msg.value);\n\n        if (!founder.call.value(msg.value)()) revert(); //immediately send Ether to founder address\n\n        Buy(recipient, msg.value, tokens);\n    }\n\n    /**\n     * Set up founder address token balance.\n     */\n    function allocateFounderTokens() onlyAdmin {\n        require( block.timestamp > endDatetime );\n        require(!founderAllocated);\n\n        balances[founder] = safeAdd(balances[founder], founderAllocation);\n        totalSupply = safeAdd(totalSupply, founderAllocation);\n        founderAllocated = true;\n\n        AllocateFounderTokens(msg.sender, founderAllocation);\n    }\n\n    /**\n     * Set up angel address token balance.\n     */\n    function allocateAngelTokens(address angel, uint tokens) onlyAdmin {\n\n        require(safeAdd(angelTokenSupply,tokens) <= angelAllocation );\n\n        balances[angel] = safeAdd(balances[angel], tokens);\n        angelTokenSupply = safeAdd(angelTokenSupply, tokens);\n        totalSupply = safeAdd(totalSupply, tokens);\n\n        AllocateAngelTokens(msg.sender, angel, tokens);\n    }\n\n    /**\n     * Emergency Stop crowdsale.\n     */\n    function halt() onlyAdmin {\n        halted = true;\n    }\n\n    function unhalt() onlyAdmin {\n        halted = false;\n    }\n\n    /**\n     * Change admin address.\n     */\n    function changeAdmin(address newAdmin) onlyAdmin  {\n        admin = newAdmin;\n    }\n\n    /**\n     * arrange unsold coins\n     */\n    function arrangeUnsoldTokens(address holder, uint256 tokens) onlyAdmin {\n        require( block.timestamp > endDatetime );\n        require( safeAdd(saleTokenSupply,tokens) <= coinAllocation );\n        require( balances[holder] >0 );\n\n        balances[holder] = safeAdd(balances[holder], tokens);\n        saleTokenSupply = safeAdd(saleTokenSupply, tokens);\n        totalSupply = safeAdd(totalSupply, tokens);\n\n        AllocateUnsoldTokens(msg.sender, holder, tokens);\n\n    }\n\n}\n\n\ncontract MoldCoinBonus is SafeMath {\n\n    function bonusBalanceOf(address _owner) constant returns (uint256 balance) {\n        return bonusBalances[_owner];\n    }\n\n    mapping (address => uint256) bonusBalances;\n\n    // administrator address\n    address public admin;\n\n    // crowdfund address\n    MoldCoin public fundAddress;\n    uint public rate = 10;\n    uint public totalSupply = 0;\n\n    bool public halted = false; //the admin address can set this to true to halt the pre-sell due to emergency\n\n    event BuyWithBonus(address indexed sender, address indexed inviter, uint eth, uint tokens, uint bonus);\n//    event BuyForFriend(address indexed sender, address indexed friend, uint eth, uint tokens, uint bonus);\n\n    modifier onlyAdmin {\n        require(msg.sender == admin);\n        _;\n    }\n\n    modifier validSale {\n        require(!halted);\n        require(!fundAddress.halted());\n        _;\n    }\n\n    function MoldCoinBonus(MoldCoin _fundAddress, uint _rate) {\n\n        admin = msg.sender;\n        fundAddress = _fundAddress;\n        rate = _rate;\n\n    }\n\n//can't support default callback\n//    function() payable {\n//        fundAddress.buyRecipient.value(msg.value)(msg.sender); //send Ether to crowdsale contract address\n//    }\n\n\n//    function buyWithBonus(address inviter) validSale payable {\n//\n//        require( msg.sender != inviter );\n//\n//        uint tokens = safeMul(msg.value, fundAddress.price(block.timestamp));\n//        uint bonus = safeDiv(safeMul(tokens, rate), 100);\n//\n//        fundAddress.buyRecipient.value(msg.value)(msg.sender); //send Ether to pre-sale contract address\n//\n//        totalSupply = safeAdd(totalSupply, bonus*2);\n//\n//        bonusBalances[inviter] = safeAdd(bonusBalances[inviter], bonus);\n//        bonusBalances[msg.sender] = safeAdd(bonusBalances[msg.sender], bonus);\n//        BuyWithBonus(msg.sender, inviter, msg.value, tokens, bonus);\n//\n//    }\n\n    function buyWithBonus(address inviter) validSale payable {\n\n        require( msg.sender != inviter );\n\n        uint tokens = safeMul(msg.value, fundAddress.price(block.timestamp));\n        uint bonus = safeDiv(safeMul(tokens, rate), 100);\n\n        fundAddress.buyRecipient.value(msg.value)(msg.sender); //send Ether to pre-sale contract address\n\n        totalSupply = safeAdd(totalSupply, bonus);\n\n        bonusBalances[inviter] = safeAdd(bonusBalances[inviter], bonus);\n        BuyWithBonus(msg.sender, inviter, msg.value, tokens, bonus);\n\n    }\n\n//    function buyForFriend(address friend) validSale payable {\n//\n//        require( msg.sender != friend );\n//\n//        uint tokens = safeMul(msg.value, fundAddress.price(block.timestamp));\n//        uint bonus = safeDiv(safeMul(tokens, rate), 100);\n//\n//        fundAddress.buyRecipient.value(msg.value)(friend); //send Ether to crowdsale contract address\n//\n//        totalSupply = safeAdd(totalSupply, bonus*2);\n//\n//        bonusBalances[friend] = safeAdd(bonusBalances[friend], bonus);\n//        bonusBalances[msg.sender] = safeAdd(bonusBalances[msg.sender], bonus);\n//        BuyForFriend(msg.sender, friend, msg.value, tokens, bonus);\n//\n//    }\n\n    /**\n     * Emergency Stop.\n     */\n    function halt() onlyAdmin {\n        halted = true;\n    }\n\n    function unhalt() onlyAdmin {\n        halted = false;\n    }\n\n    /**\n     * Change admin address.\n     */\n    function changeAdmin(address newAdmin) onlyAdmin  {\n        admin = newAdmin;\n    }\n\n    function changeRate(uint _rate) onlyAdmin  {\n        rate = _rate;\n    }\n\n}\n",
  "sourcePath": "/Users/lilong/Works/Mold/token/contracts/MoldCoin.sol",
  "compiler": {
    "name": "solc",
    "version": "0.4.18+commit.9cf6e910.Emscripten.clang"
  },
  "schemaVersion": "1.0.1",
  "updatedAt": "2017-12-12T03:44:15.713Z"
}